:100000000C94B5000C94DD010C94D2000C94D20039
:100010000C94D2000C94D2000C9401010C94D200E8
:100020000C94D2000C94D2000C94D2000C94D20008
:100030000C94D2000C94D2000C94D2000C94D200F8
:100040000C9426010C94D2000C94D2000C94D20093
:100050000C94D2000C94D2000C94D2000C94D200D8
:100060000C94D2000C94D2006E616E00696E660032
:1000700000407A10F35A00A0724E18090010A5D45F
:10008000E80000E87648170000E40B54020000CABC
:100090009A3B000000E1F505000080969800000002
:1000A00040420F000000A086010000001027000061
:1000B0000000E803000000006400000000000A00E7
:1000C000000000000100000000002C76D888DC67EA
:1000D0004F0823DFC1DFAE59E1B1B796E5E3E45342
:1000E000C63AE651997696E8E6C28426EB898C9B5F
:1000F00062ED407C6FFCEFBC9C9F40F2BAA56FA5FF
:10010000F490055A2AF75C936B6CF9676DC11BFC80
:10011000E0E40D47FEF520E6B500D0ED902E03009B
:10012000943577050080841E080000204E0A0000E8
:1001300000C80C333333330F986E12831141EF8DA7
:100140002114893BE65516CFFEE6DB18D1844B38E7
:100150001BF77C1D901DA4BBE424203284725E2218
:100160008100C9F124ECA1E53D2711241FBECFEF8A
:10017000D8E0DEBFCDBF11E0A0E0B1E0EAE0F5E1FC
:1001800002C005900D92A838B107D9F721E0A8E880
:10019000B1E001C01D92A13AB207E1F70E94D60278
:1001A0000C94830A0C9400000895889508950E9489
:1001B000AF02EBE9F1E08EE091E09383828380E08F
:1001C00091E091838083089581E080936E0016BC56
:1001D00085E085BD089504B603FE0AC084B7877F15
:1001E00084BF8091600088618093600010926000FD
:1001F0008091600088618093600080E4809360005B
:1002000008951F920F920FB60F9211248F939F9310
:10021000AF93BF938091970190919801A09199011C
:10022000B0919A014096A11DB11D809397019093C2
:100230009801A0939901B0939A01BF91AF919F91BA
:100240008F910F900FBE0F901F9018951F920F92D5
:100250000FB60F9211242F938F939F93AF93BF9359
:100260008091890190918A01A0918B01B0918C01BC
:100270004096A11DB11D8093890190938A01A0939E
:100280008B01B0938C0180918D0190918E018058EB
:100290009E4F90938E0180938D0180918D0190915E
:1002A0008E01883E9340ECF080918D0190918E01FB
:1002B000885E934090938E0180938D018091890197
:1002C00090918A01A0918B01B0918C010196A11DA2
:1002D000B11D8093890190938A01A0938B01B09303
:1002E0008C01BF91AF919F918F912F910F900FBE75
:1002F0000F901F90189560919701709198018091CF
:10030000990190919A0108958F929F92AF92BF9216
:10031000CF92DF92EF92FF920F931F93009197017C
:10032000109198012091990130919A0106171707B1
:10033000280739073CF58090970190909801A0908C
:100340009901B0909A010E94C0079B01AC0160E046
:1003500070E080E09FE40E94A90620E030E040E8E1
:100360005FE30E94AA066B017C01C501B4010E94F3
:10037000C0079B01AC01C701B6010E94AA060E94FA
:10038000880710C000919701109198012091990160
:1003900030919A0168017901C61AD70AE80AF90A68
:1003A000C701B6011F910F91FF90EF90DF90CF90A2
:1003B000BF90AF909F908F9008951F920F920FB6AD
:1003C0000F921124CF92DF92EF92FF922F933F93DF
:1003D0004F935F936F937F938F939F93AF93BF934D
:1003E000EF93FF9360918F01709190018091910143
:1003F000909192010E9484016D32714081059105B6
:10040000E4F18091970190919801A0919901B091A8
:100410009A0180938F0190939001A0939101B093E2
:100420009201C0908901D0908A01E0908B01F090F8
:100430008C0186B5682F70E080E090E00E94BE07D6
:100440002FE632E143E85DE30E944C080E948807F2
:10045000DC01CB018C0D9D1DAE1DBF1D8093930152
:1004600090939401A0939501B093960180E291E05E
:100470000E94F50981E080938801FF91EF91BF917F
:10048000AF919F918F917F916F915F914F913F912C
:100490002F91FF90EF90DF90CF900F900FBE0F90B5
:1004A0001F9018958F929F92AF92BF92CF92DF923A
:1004B000EF92FF9280918F0190919001A091910114
:1004C000B0919201BF93AF939F938F9389E391E093
:1004D0009F938F930E94DF09609193017091940123
:1004E000809195019091960180908F01909090015C
:1004F000A0909101B09092010E94C0076B017C0115
:10050000C501B4010E94C0079B01AC01C701B6013F
:100510000E94160720E030E048EC52E40E944C08AC
:100520009F938F937F936F938BE591E09F938F932E
:100530000E94DF09109288018DB79EB70C960FB606
:10054000F8949EBF0FBE8DBFFF90EF90DF90CF90CD
:10055000BF90AF909F908F900895889508951092C6
:10056000C50087E68093C400E0ECF0E080818D7FD9
:10057000808386E08093C20088E18093C100089563
:10058000CF93C82F8A3019F48DE00E94C002809169
:10059000C00085FFFCCFC093C600CF910895809125
:1005A000C00087FFFCCF8091C6000895F8940E9498
:1005B000D7008FEF84B915B852985A9A81E08DBB55
:1005C00083E0809369000E94E4000E94EB0088951C
:1005D00087E791E00E94F50978948091880188234B
:1005E00019F00E945202F9CF8895F7CFA3E1B0E04D
:1005F000ECEFF2E00C9472066C014B012A01FC0155
:1006000017821682838181FF43C3AE014F5F5F4F24
:100610003A01F6019381F40193FD859193FF819155
:100620004F01882309F430C3853239F493FD859155
:1006300093FF81914F01853239F4B60190E00E9419
:10064000A70952012501E5CF10E0F12C20E020326E
:10065000A0F48B3269F030F4803259F0833269F4BF
:1006600020612CC08D3239F0803339F4216026C0EE
:100670002260246023C0286021C027FD27C030ED00
:10068000380F3A3078F426FF06C0FAE01F9F300D8D
:100690001124132F13C04AE0F49E300D1124F32EC1
:1006A00020620CC08E3221F426FDEEC2206406C00A
:1006B0008C3611F4206802C0883641F4F40193FDB1
:1006C000859193FF81914F018111C1CF9BEB980FD1
:1006D000933018F42061805E06C09BE9980F933038
:1006E00008F071C12F7E26FF16E02F73322E85365B
:1006F00019F42064322E08C0863621F4F22FF068F7
:100700003F2E02C01111115037FE07C01C3350F4A8
:10071000EE24E394E10E27E00BC0183038F027E018
:1007200017E005C027E04CE3E42E02C0212FE12CA6
:10073000520144E0A40EB11CF201608171818281FA
:1007400093810E2DA3010E94B9082C01098100FF9D
:1007500002C003FF07C031FC08C032FE09C030E20E
:10076000232E07C02DE2222E04C09BE2292E01C0B9
:10077000212C802F8C7019F0211068C2A8C237FE7E
:100780000FC0E40C04FF04C08A81813309F4EA94A9
:100790001E1474F5F8E0FE1578F588E0E82E2CC0FC
:1007A00036FC2AC0812F90E0841595059CF02CEF33
:1007B00042162FEF520674F0432D4068342E0AC0C3
:1007C000E2E0F0E0EC0FFD1FE10FF11D80818033CE
:1007D00019F411501111F4CF37FE0EC0EE24E3943A
:1007E000E10E812F90E0481659062CF4141904C02C
:1007F000EE24E39401C010E037FE06C01414150483
:1008000034F4C201019605C085E090E002C081E0A9
:1008100090E021100196112331F0212F30E02F5F5D
:100820003F4F820F931F2F2D30E08217930714F450
:10083000F81A01C0F12C832D897049F4FF2039F09A
:10084000B60180E290E00E94A709FA94F7CF222037
:1008500029F0B601822D90E00E94A70933FC09C05F
:10086000FF2039F0B60180E390E00E94A709FA94D6
:10087000F7CF37FE5AC0942D852D57FE02C090E069
:1008800080E0292E382E20E030E0A2014E195109D7
:100890005D874C87A201421953095F874E87612FFC
:1008A00070E044275527461B570B598B488B5FEF49
:1008B0002516350649F4B6018EE290E02A8B3B8B73
:1008C0000E94A7093B892A89421453046CF04C8585
:1008D0005D854215530544F4EE85FF85E20FF31F55
:1008E000E60DF71D818101C080E351E0251A310832
:1008F0002F5F3F4F48895989241635064CF0B601C1
:1009000090E02A8B3B8B0E94A7092A893B89CFCF95
:100910002414350439F49A81963318F4953311F47C
:1009200004FF81E3B60190E04BC08A81813309F076
:100930000F7EB60190E00E94A709111105C034FC9A
:1009400018C085E690E017C0B6018EE290E00E94E4
:10095000A70982E0EE24E394E80EF301E80FF11D0D
:100960008081B60190E00E94A70911508E2D91F769
:10097000E6CF85E490E0B6010E94A70957FC05C0C8
:100980004114510439F404FF05C0519441945108B5
:100990008DE201C08BE2B60190E00E94A70980E3DE
:1009A0009AE0491651042CF08F5F5AE0451A51081D
:1009B000F7CFB60190E00E94A709B601C201C09628
:1009C0000E94A70957C1833631F0833779F0833508
:1009D00009F058C021C05201E2E0AE0EB11CF20194
:1009E0008081898301E010E0230114C05201F2E00C
:1009F000AF0EB11CF2014080518026FF03C0612F71
:100A000070E002C06FEF7FEFC2012A8B0E949C0949
:100A10008C012A892F7715C05201F2E0AF0EB11C6C
:100A2000F2014080518026FF03C0612F70E002C0B8
:100A30006FEF7FEFC2012A8B0E9491098C012A89F6
:100A40002068322E23FD1AC08F2D90E00817190759
:100A5000A8F4B60180E290E00E94A709FA94F4CFCE
:100A6000F20137FC859137FE81912F01B60190E0AC
:100A70000E94A709F110FA940150110901151105FE
:100A800079F7F8C0843611F0893659F5520127FFFD
:100A900009C0F4E0AF0EB11CF20160817181828166
:100AA00093810AC0F2E0AF0EB11CF2016081718146
:100AB000072E000C880B990B2F76322E97FF09C05A
:100AC00090958095709561957F4F8F4F9F4F2068CF
:100AD000322E2AE030E0A3010E94250AE82EE61813
:100AE0003FC0022F853721F40F7E2AE030E01DC081
:100AF000097F8F3691F018F4883559F0C5C08037DA
:100B000019F0883711F0C0C0006104FF09C004600B
:100B100007C024FF08C0066006C028E030E005C01A
:100B200020E130E002C020E132E0520107FF09C0BD
:100B3000F4E0AF0EB11CF20160817181828193817A
:100B400008C0F2E0AF0EB11CF2016081718180E05B
:100B500090E0A3010E94250AE82EE6180F77302EB8
:100B600036FE0BC0332D3E7FE11650F434FE0AC032
:100B700032FC08C0332D3E7E05C00E2D332D03C040
:100B80000E2D01C0012F34FF0CC0FE01EE0DF11D32
:100B90008081803311F4397E08C032FF05C00E5FBA
:100BA00004C0832F867809F00F5F33FD13C030FF38
:100BB00006C01E2D0F1518F41F0D101B0F2D0F153D
:100BC00068F4B60180E290E03B8B0E94A7090F5FBA
:100BD0003B89F5CF0F1510F4F01A01C0F12C34FF4A
:100BE00012C0B60180E390E03B8B0E94A7093B89CD
:100BF00032FF17C031FD03C088E790E002C088E5EE
:100C000090E0B6010CC0832F867859F031FF02C006
:100C10008BE201C080E237FD8DE2B60190E00E94D8
:100C2000A709E11638F4B60180E390E00E94A70915
:100C30001150F7CFEA94F301EE0DF11D8081B6015A
:100C400090E00E94A709E110F5CF14C0F4E0FF1571
:100C500058F584E0F81A33FE1EC0211026C003FFA9
:100C60002AC008E610E0F32DF0713F2EF8018491C0
:100C7000811124C0FF2009F4E5CCB60180E290E0A8
:100C80000E94A709FA94F6CFF6018681978126C0C3
:100C90008FEF9FEF23C0B60180E290E00E94A7098A
:100CA000FA94F110F8CFD9CFF12CB601822D90E053
:100CB0000E94A709D4CF0CE610E0D5CF31108052A6
:100CC000B60190E00E94A7090F5F1F4FCFCF23E02E
:100CD0002F1510F483E0BECFF12CC1CF6396E2E173
:100CE0000C948E062F923F924F925F926F927F925A
:100CF0008F929F92AF92BF92CF92DF92EF92FF922C
:100D00000F931F93CF93DF93CDB7DEB7CA1BDB0BD7
:100D10000FB6F894DEBF0FBECDBF09942A8839887C
:100D200048885F846E847D848C849B84AA84B98483
:100D3000C884DF80EE80FD800C811B81AA81B9818F
:100D4000CE0FD11D0FB6F894DEBF0FBECDBFED01A3
:100D500008955058BB27AA270E94C1060C94120878
:100D60000E94040838F00E940B0820F039F49F3FDD
:100D700019F426F40C9401080EF4E095E7FB0C94AA
:100D8000FB07E92F0E94230858F3BA17620773077D
:100D90008407950720F079F4A6F50C9445080EF425
:100DA000E0950B2EBA2FA02D0B01B90190010C017B
:100DB000CA01A0011124FF27591B99F0593F50F493
:100DC000503E68F11A16F040A22F232F342F4427EB
:100DD000585FF3CF469537952795A795F0405395E3
:100DE000C9F77EF41F16BA0B620B730B840BBAF0B3
:100DF0009150A1F0FF0FBB1F661F771F881FC2F71E
:100E00000EC0BA0F621F731F841F48F48795779531
:100E10006795B795F7959E3F08F0B0CF9395880FEB
:100E200008F09927EE0F9795879508950E942A0755
:100E30000C9412080E940B0858F00E94040840F01D
:100E400029F45F3F29F00C94FB0751110C944608DC
:100E50000C9401080E94230868F39923B1F35523E9
:100E600091F3951B550BBB27AA27621773078407BD
:100E700038F09F5F5F4F220F331F441FAA1FA9F353
:100E800035D00E2E3AF0E0E832D091505040E69541
:100E9000001CCAF72BD0FE2F29D0660F771F881FA2
:100EA000BB1F261737074807AB07B0E809F0BB0B95
:100EB000802DBF01FF2793585F4F3AF09E3F5105A9
:100EC00078F00C94FB070C9446085F3FE4F3983EDF
:100ED000D4F3869577956795B795F7959F5FC9F792
:100EE000880F911D9695879597F90895E1E0660F13
:100EF000771F881FBB1F621773078407BA0720F08C
:100F0000621B730B840BBA0BEE1F88F7E0950895F4
:100F10000E948F076894B1110C94460808950E94AE
:100F20002B0888F09F5798F0B92F9927B751B0F048
:100F3000E1F0660F771F881F991F1AF0BA95C9F75D
:100F400014C0B13091F00E944508B1E008950C94AE
:100F50004508672F782F8827B85F39F0B93FCCF361
:100F6000869577956795B395D9F73EF490958095DA
:100F7000709561957F4F8F4F9F4F0895E89409C0FA
:100F800097FB3EF490958095709561957F4F8F4FBC
:100F90009F4F9923A9F0F92F96E9BB279395F695D2
:100FA000879577956795B795F111F8CFFAF4BB0F50
:100FB00011F460FF1BC06F5F7F4F8F4F9F4F16C0B4
:100FC000882311F096E911C0772321F09EE8872F3E
:100FD000762F05C0662371F096E8862F70E060E0FA
:100FE0002AF09A95660F771F881FDAF7880F969573
:100FF000879597F9089597F99F6780E870E060E01A
:1010000008959FEF80EC089500240A9416161706A1
:1010100018060906089500240A94121613061406E9
:1010200005060895092E0394000C11F4882352F04C
:10103000BB0F40F4BF2B11F460FF04C06F5F7F4F04
:101040008F4F9F4F089557FD9058440F551F59F0EB
:101050005F3F71F04795880F97FB991F61F09F3FA5
:1010600079F087950895121613061406551FF2CFCE
:101070004695F1DF08C0161617061806991FF1CF1E
:1010800086957105610508940895E894BB27662745
:101090007727CB0197F908950E945F080C941208F6
:1010A0000E94040838F00E940B0820F0952311F0EC
:1010B0000C94FB070C94010811240C9446080E9420
:1010C000230870F3959FC1F3950F50E0551F629F61
:1010D000F001729FBB27F00DB11D639FAA27F00D91
:1010E000B11DAA1F649F6627B00DA11D661F829FB8
:1010F0002227B00DA11D621F739FB00DA11D621F9D
:10110000839FA00D611D221F749F3327A00D611DB9
:10111000231F849F600D211D822F762F6A2F11249B
:101120009F5750409AF0F1F088234AF0EE0FFF1FCE
:10113000BB1F661F771F881F91505040A9F79E3F25
:10114000510580F00C94FB070C9446085F3FE4F3D4
:10115000983ED4F3869577956795B795F795E7957B
:101160009F5FC1F7FE2B880F911D9695879597F984
:101170000895283008F027E03327DA01990F311D50
:1011800087FD916000966105710539F432602E5F2C
:101190003D9330E32A95E1F708959F3F30F0803882
:1011A0007105610509F03C5F3C5F3D93913008F0AB
:1011B0008068911DDF93CF931F930F93FF92EF925F
:1011C000192F987F9695E92F96959695E90FFF2709
:1011D000E653FF4F99273327EE24FF24A701E701A9
:1011E00005900894079428F4360FE71EF81E491F4F
:1011F000511D660F771F881F991F0694A1F7059050
:10120000079428F4E70EF81E491F561FC11D770FDB
:10121000881F991F661F0694A1F70590079428F46C
:10122000F80E491F561FC71FD11D880F991F661F33
:10123000771F0694A1F70590079420F4490F561FD5
:10124000C71FD81F990F661F771F881F0694A9F71D
:1012500084911095177041F0D695C795579547958D
:10126000F794E7941A95C1F7E0E7F0E068941590D9
:10127000159135916591959105907FE27395E118EF
:10128000F10A430B560BC90BD009C0F7E10CF11E54
:10129000431F561FC91FD01D7EF4703311F48A9569
:1012A000E6CFE894015030F0080F0AF40027021747
:1012B00008F4202F2395022F7A3328F079E37D93C9
:1012C0002A95E9F710C07D932A9589F6069497959B
:1012D0006795379517951794E118F10A430B560B4C
:1012E000C90BD00998F023957E9173957A3308F055
:1012F00070E37C932013B8F77E9170617D9330F09A
:10130000839571E37D9370E32A95E1F71124EF90C3
:10131000FF900F911F91CF91DF91992787FD9095B5
:101320000895FC010590615070400110D8F7809538
:1013300090958E0F9F1F0895FC01615070400190A1
:101340000110D8F7809590958E0F9F1F08950F93E9
:101350001F93CF93DF93FB01238121FD03C08FEF08
:101360009FEF28C022FF16C0468157812481358116
:101370004217530744F4A081B1819D012F5F3F4F75
:10138000318320838C93268137812F5F3F4F3783B2
:10139000268310C0EB01092F182F0084F185E02D62
:1013A0000995892BE1F68E819F8101969F838E831B
:1013B000812F902FDF91CF911F910F910895A0E081
:1013C000B0E0E5EEF9E00C948206AE014B5F5F4FB2
:1013D000FA0161917191AF0180919D0190919E01FF
:1013E0000E94F602E2E00C949E060F931F93CF93A7
:1013F000DF93E0919D01F0919E01238121FF1BC0AD
:101400008C01D0E0C0E0F80181918F0160919D01D5
:1014100070919E01DB011896ED91FC91199788233C
:1014200031F00995892B79F3DFEFCFEFECCF8AE02C
:101430000995892B19F08FEF9FEF02C08D2F9C2FFC
:10144000DF91CF911F910F910895FA01AA272830BB
:1014500051F1203181F1E8946F936E7F6E5F7F4F81
:101460008F4F9F4FAF4FB1E03ED0B4E03CD0670FFD
:10147000781F891F9A1FA11D680F791F8A1F911D50
:10148000A11D6A0F711D811D911DA11D20D009F4A0
:1014900068943F912AE0269F11243019305D3193E2
:1014A000DEF6CF010895462F4770405D4193B3E0CB
:1014B0000FD0C9F7F6CF462F4F70405D4A3318F072
:1014C000495D31FD4052419302D0A9F7EACFB4E023
:1014D000A6959795879577956795BA95C9F70097DB
:1014E0006105710508959B01AC010A2E069457957C
:1014F000479537952795BA95C9F7620F731F841FD3
:0A150000951FA01D0895F894FFCF79
:10150A0000000001000000000000CF0200000000FF
:10151A00000200000000C002000000000000004FAE
:10152A000A0A5B494E464F5D20427574746F6E20FD
:10153A005072657373656421002A2A2A2054696DE2
:10154A00652073696E636520626F6F743A20256C3B
:10155A0064206D73202A2A2A200A002A2A2A204473
:10156A00757479206379636C653A2025342E326666
:10157A00202A2A2A200A000A0A5B494E464F5D2081
:08158A0053746172742100002A
:00000001FF
