:100000000C9434000C943E000C943E000C943E0082
:100010000C943E000C943E000C943E000C943E0068
:100020000C943E000C943E000C943E000C943E0058
:100030000C943E000C943E000C943E000C943E0048
:100040000C943E000C943E000C943E000C943E0038
:100050000C943E000C943E000C943E000C943E0028
:100060000C943E000C943E0011241FBECFEFD8E04C
:10007000DEBFCDBF0E945C000C9470000C940000A9
:10008000CF93DF9300D0CDB7DEB7882381F01A82FB
:10009000198229813A812933310539F029813A8140
:1000A0002F5F3F4F3A832983F4CF8150EECF0F90DB
:1000B0000F90DF91CF9108958FEF84B91FEF15B99D
:1000C000CAE0D0E088EC0E9440002197D9F715B82B
:1000D000CAE0D0E088EC0E9440002197D9F7EFCF2A
:0400E000F894FFCFC2
:00000001FF
