:100000000C9434000C9436010C9451000C94510063
:100010000C9451000C9451000C9451000C9451001C
:100020000C9451000C9451000C9451000C94A800B5
:100030000C9451000C9451000C9451000C945100FC
:100040000C9451000C9451000C9451000C945100EC
:100050000C9451000C9451000C9451000C945100DC
:100060000C9451000C94510011241FBECFEFD8E026
:10007000DEBFCDBF12E0A0E0B1E0E8E2FCE002C0EC
:1000800005900D92A430B107D9F722E0A4E0B2E0C8
:1000900001C01D92A132B207E1F70E94CA010C947F
:1000A00012060C9400006091070270910802809182
:1000B000090290910A020895609107027091080266
:1000C0008091090290910A0228EE33E040E050E06E
:1000D0000E944402CA01B901089586E291E00E949B
:1000E000EC020E94C602209102013091030160914E
:1000F0000001709101016F5F7F4F621B730B0E94C3
:100100003002280F391F309306022093050285E341
:1001100091E00E94EC0215B81092130210921402A2
:10012000109215021092160210920F0210921002F5
:10013000109211021092120210920B0210920C02F5
:1001400010920D0210920E028EE491E00C94EC02DB
:100150001F920F920FB60F9211248F939F93AF931C
:10016000BF938091070290910802A0910902B0917B
:100170000A020196A11DB11D809307029093080207
:10018000A0930902B0930A02BF91AF919F918F9102
:100190000F900FBE0F901F901895CF93DF938FE6AF
:1001A00091E00E94EC0281E08093040240911302EE
:1001B000509114026091150270911602411551057B
:1001C00061057105C9F48091070290910802A09120
:1001D0000902B0910A028093130290931402A09333
:1001E0001502B093160285E891E00E94EC028FEFB1
:1001F00085B98DE991E024C080910F0290911002A1
:10020000A0911102B0911202EC01C41BD50BBF9357
:10021000AF939F938F9382EB91E09F938F930E9474
:10022000D6020F900F900F900F900F900F9080912B
:10023000050290910602C817D90734F483ED91E0C6
:10024000DF91CF910C94EC02809104019091050113
:10025000C817D9071CF487EE91E0F2CF82EF91E046
:100260000E94EC02DF91CF910C946D001F920F92CF
:100270000FB60F9211240F931F932F933F934F9319
:100280005F936F937F938F939F93AF93BF93EF93FE
:10029000FF9340910F0250911002609111027091F2
:1002A000120240930B0250930C0260930D02709364
:1002B0000E028091070290910802A0910902B0916C
:1002C0000A0280930F0290931002A0931102B09340
:1002D0001202009113021091140220911502309124
:1002E0001602012B022B032B19F40E94CD0005C02E
:1002F000481759076A077B07C1F7FF91EF91BF9134
:10030000AF919F918F917F916F915F914F913F91AD
:100310002F911F910F910F900FBE0F901F90189566
:100320001092C50087E68093C400E0ECF0E0808185
:100330008D7F808386E08093C20088E18093C10036
:100340000895CF93C82F8A3019F48DE00E94A1013F
:100350008091C00085FFFCCFC093C600CF91089567
:100360008091C00087FFFCCF8091C6000895FC01FA
:100370000FB6F89460911D0270911E0280911F02C9
:10038000909120020FBE309721F0608371838283A9
:10039000938308950E94900184E191E090931A0262
:1003A0008093190286E091E09093180280931702DF
:1003B00080E090E00E94B7010E94CB02F8948FEF9A
:1003C00084B952985A9A809169008E7F809369000F
:1003D00080916900826080936900E89A8091810031
:1003E0008B608093810010928500109284008AEFC8
:1003F00090E0909389008093880080916F008260E4
:1004000080936F0078940E946D00209104024091C7
:100410000F025091100260911102709112028091AE
:10042000130290911402A0911502B0911602481B7C
:10043000590B6A0B7B0B8091040190910501092EE9
:10044000000CAA0BBB0B211101C0FFCF48175907A5
:100450006A077B07C0F382EF91E00E94EC02D3CFE2
:1004600097FB072E16F4009407D077FD09D00E9461
:10047000660207FC05D03EF4909581959F4F089544
:10048000709561957F4F0895A1E21A2EAA1BBB1BA0
:10049000FD010DC0AA1FBB1FEE1FFF1FA217B30750
:1004A000E407F50720F0A21BB30BE40BF50B661F66
:1004B000771F881F991F1A9469F76095709580952A
:1004C00090959B01AC01BD01CF010895AA1BBB1BF8
:1004D00051E107C0AA1FBB1FA617B70710F0A61B44
:1004E000B70B881F991F5A95A9F780959095BC0165
:1004F000CD0108958F929F92AF92BF92CF92DF92DB
:10050000EF92FF92CF93DF93EC01688179818A812A
:100510009B81611571058105910521F464E279EDF6
:100520008BE597E02DE133EF41E050E00E949A0522
:1005300049015A019B01AC01A7EAB1E40E94B90547
:100540006B017C01ACEEB4EFA50194010E94C705DC
:10055000DC01CB018C0D9D1DAE1DBF1DB7FF03C07F
:100560000197A109B04888839983AA83BB839F77A9
:10057000DF91CF91FF90EF90DF90CF90BF90AF9041
:100580009F908F9008950E947A02089582E291E0F0
:100590000E947A020895A0E0B0E080932201909337
:1005A0002301A0932401B09325010895A0E0B0E0B9
:1005B000ECEDF2E00C94DC05AE014B5F5F4FFA010D
:1005C00061917191AF018091190290911A020E947C
:1005D0001C03E2E00C94F8050F931F93CF93DF9375
:1005E000E0911902F0911A02238121FF1BC08C01B6
:1005F000D0E0C0E0F80181918F0160911902709103
:100600001A02DB011896ED91FC911997882331F0BD
:100610000995892B79F3DFEFCFEFECCF8AE00995CD
:10062000892B19F08FEF9FEF02C08D2F9C2FDF9148
:10063000CF911F910F910895ACE0B0E0E2E2F3E0BA
:100640000C94CC057C016B018A01FC011782168297
:10065000838181FFBDC1CE0101964C01F7019381D9
:10066000F60193FD859193FF81916F01882309F431
:10067000ABC1853239F493FD859193FF81916F0170
:10068000853229F4B70190E00E940405E7CF512C90
:10069000312C20E02032A0F48B3269F030F480322B
:1006A00059F0833269F420612CC08D3239F08033E7
:1006B00039F4216026C02260246023C0286021C054
:1006C00027FD27C030ED380F3A3078F426FF06C0FA
:1006D000FAE05F9E300D1124532E13C08AE0389E3D
:1006E000300D1124332E20620CC08E3221F426FDF1
:1006F0006BC1206406C08C3611F4206802C08836B5
:1007000041F4F60193FD859193FF81916F01811171
:10071000C1CF982F9F7D9554933028F40C5F1F4FC5
:10072000FFE3F9830DC0833631F0833771F08335F1
:1007300009F05BC022C0F801808189830E5F1F4FE2
:1007400044244394512C540115C03801F2E06F0E3B
:10075000711CF801A080B18026FF03C0652D70E0F8
:1007600002C06FEF7FEFC5012C870E94F9042C01B6
:1007700083012C852F77222E17C03801F2E06F0EEF
:10078000711CF801A080B18026FF03C0652D70E0C8
:1007900002C06FEF7FEFC5012C870E94EE042C0191
:1007A0002C852068222E830123FC1BC0832D90E022
:1007B00048165906B0F4B70180E290E00E940405A3
:1007C0003A94F4CFF50127FC859127FE81915F01D2
:1007D000B70190E00E94040531103A94F1E04F1AFD
:1007E00051084114510471F7E5C0843611F089367F
:1007F00039F5F80127FF07C06081718182819381FB
:100800000C5F1F4F08C060817181072E000C880BA0
:10081000990B0E5F1F4F2F76722E97FF09C0909590
:100820008095709561957F4F8F4F9F4F2068722EF6
:100830002AE030E0A4010E943C05A82EA81844C07C
:10084000853729F42F7EB22E2AE030E025C0F22F22
:10085000F97FBF2E8F36C1F018F4883579F0B4C017
:10086000803719F0883721F0AFC02F2F2061B22ECA
:10087000B4FE0DC08B2D8460B82E09C024FF0AC0C1
:100880009F2F9660B92E06C028E030E005C020E119
:1008900030E002C020E132E0F801B7FE07C060811D
:1008A0007181828193810C5F1F4F06C060817181CD
:1008B00080E090E00E5F1F4FA4010E943C05A82E2F
:1008C000A818FB2DFF777F2E76FE0BC0372D3E7FBD
:1008D000A51450F474FE0AC072FC08C0372D3E7E89
:1008E00005C0BA2C372D03C0BA2C01C0B52C34FF7B
:1008F0000DC0FE01EA0DF11D8081803311F4397EB7
:1009000009C032FF06C0B394B39404C0832F867825
:1009100009F0B39433FD13C030FF06C05A2CB31452
:1009200018F4530C5B18B32CB31468F4B70180E2CD
:1009300090E03C870E940405B3943C85F5CFB31446
:1009400010F43B1801C0312C34FF12C0B70180E312
:1009500090E03C870E9404053C8532FF17C031FDC2
:1009600003C088E790E002C088E590E0B7010CC0C2
:10097000832F867859F031FF02C08BE201C080E2FC
:1009800037FD8DE2B70190E00E940405A51438F40C
:10099000B70180E390E00E9404055A94F7CFAA942F
:1009A000F401EA0DF11D8081B70190E00E94040579
:1009B000A110F5CF332009F451CEB70180E290E0C9
:1009C0000E9404053A94F6CFF7018681978102C010
:1009D0008FEF9FEF2C96E2E10C94E805FC01059067
:1009E000615070400110D8F7809590958E0F9F1F31
:1009F0000895FC016150704001900110D8F7809576
:100A000090958E0F9F1F08950F931F93CF93DF93A1
:100A1000FB01238121FD03C08FEF9FEF28C022FF40
:100A200016C046815781248135814217530744F40B
:100A3000A081B1819D012F5F3F4F318320838C9333
:100A4000268137812F5F3F4F3783268310C0EB010C
:100A5000092F182F0084F185E02D0995892BE1F6E7
:100A60008E819F8101969F838E83812F902FDF91AE
:100A7000CF911F910F910895FA01AA27283051F1C3
:100A8000203181F1E8946F936E7F6E5F7F4F8F4FBF
:100A90009F4FAF4FB1E03ED0B4E03CD0670F781F1E
:100AA000891F9A1FA11D680F791F8A1F911DA11D03
:100AB0006A0F711D811D911DA11D20D009F468943C
:100AC0003F912AE0269F11243019305D3193DEF6E4
:100AD000CF010895462F4770405D4193B3E00FD09A
:100AE000C9F7F6CF462F4F70405D4A3318F0495D85
:100AF00031FD4052419302D0A9F7EACFB4E0A69568
:100B00009795879577956795BA95C9F70097610589
:100B1000710508959B01AC010A2E069457954795DF
:100B200037952795BA95C9F7620F731F841F951FD4
:100B3000A01D0895052E97FB1EF400940E94B10598
:100B400057FD07D00E94440207FC03D04EF40C94DA
:100B5000B10550954095309521953F4F4F4F5F4FD0
:100B6000089590958095709561957F4F8F4F9F4F19
:100B700008950E940306A59F900DB49F900DA49F19
:100B8000800D911D11240895B7FF0C94B9050E94A2
:100B9000B905821B930B08952F923F924F925F925B
:100BA0006F927F928F929F92AF92BF92CF92DF927D
:100BB000EF92FF920F931F93CF93DF93CDB7DEB7E2
:100BC000CA1BDB0B0FB6F894DEBF0FBECDBF099476
:100BD0002A88398848885F846E847D848C849B84CD
:100BE000AA84B984C884DF80EE80FD800C811B81DB
:100BF000AA81B981CE0FD11D0FB6F894DEBF0FBE0A
:100C0000CDBFED010895A29FB001B39FC001A39F86
:100C1000700D811D1124911DB29F700D811D112435
:080C2000911D0895F894FFCF27
:100C2800B80BE80388130000000100000000000072
:100C3800B00100000000000200000000A101000057
:100C48000000010000005B494E464F5D206F6E5268
:100C580065736574005B494E464F5D205475726E2E
:100C68007320746865204C4544206F6666000A2A24
:100C78002A2A20505245535320425554544F4E204F
:100C8800544F20535441525421202A2A2A0A005BE7
:100C9800494E464F5D20427574746F6E20707265C0
:100CA80073736564005B494E464F5D205475726EE0
:100CB8007320746865204C4544204F4E005B494EB4
:100CC800464F5D2047414D452053544152544544B9
:100CD80021000A2A2A2A205245414354494F4E20CE
:100CE80054494D453A20256C64206D73202A2A2AE0
:100CF8000A0A000A2A2A2A20544F4F204541524CFA
:100D080059202A2A2A0A005B494E464F5D204F4B3C
:100D180021000A2A2A2A2054494D454F5554202A91
:040D28002A2A0A0069
:00000001FF
