:100000000C9434000C943E000C943E000C943E0082
:100010000C943E000C943E000C943E000C943E0068
:100020000C943E000C943E000C943E000C943E0058
:100030000C943E000C943E000C943E000C943E0048
:100040000C943E000C943E000C9446000C943E0030
:100050000C943E000C943E000C943E000C943E0028
:100060000C943E000C943E0011241FBECFEFD8E04C
:10007000DEBFCDBF0E9450000C9458000C940000CD
:1000800080E090E0089580E090E008951F920F9244
:100090000FB60F9211240F900FBE0F901F9018955E
:1000A00078948091C00085FFFCCF1092C600F9CFF4
:0400B000F894FFCFF2
:00000001FF
