:100000000C9442000C94B5020C94F3020C945F0023
:100010000C945F000C945F000C945F000C945F00E4
:100020000C945F000C945F000C945F000C945F00D4
:100030000C945F000C945F000C945F000C945F00C4
:100040000C9442020C945F000C945F000C945F00CF
:100050000C945F000C945F000C945F000C945F00A4
:100060000C945F000C945F00CF03E20309042704A3
:1000700046048C049004C0046364696E6F707375E9
:1000800078585B0011241FBECFEFD8E0DEBFCDBF94
:1000900012E0A0E0B1E0EEE2FCE102C005900D92BA
:1000A000A436B107D9F722E0A4E6B2E001C01D9260
:1000B000AA39B207E1F70E9444030C94150E0C9480
:1000C0000000CF93873049F46091980270919902B3
:1000D00088E091E0CF910C94BE07C82F8A3019F4C4
:1000E0008DE00E9461008091C00085FFFCCFC0932D
:1000F000C600CF910895EF92FF920F931F93CF9375
:10010000DF932091760230917702232B09F0ACC067
:10011000EC010EE612E08091C00087FFFCCF8091D9
:10012000C00084FDB3C08091C00083FDB1C0809148
:10013000C6008D3069F48AE0F8018083BE010E9418
:1001400061008EE692E090937702809376028CC0F5
:100150008A3089F3893009F480E290EE980F9F3558
:1001600010F0803AC0F0F2E005371F0749F46091C3
:1001700098027091990288E091E00E94BE07CBCF6F
:1001800078019FEFE91AF90AF8018083BE010E9405
:1001900061008701C0CF823129F130F4833009F446
:1001A00077C0883051F0B7CF873129F08F3729F0E9
:1001B000853159F1B0CF78014FC0F2E00E361F07FC
:1001C00009F008F4A8CFBE0188E00E946100BE01DA
:1001D00080E20E946100BE0188E00E94610001503F
:1001E000110999CFBE018DE00E9461008EE6E82ED4
:1001F00082E0F82EE016F10608F08DCFBE01F7017F
:1002000081917F010E946100F5CFF2E00E361F0759
:1002100009F008F480CFBE0188E00E946100BE01B1
:1002200080E20E946100BE0188E00E9461000150EE
:100230001109EBCFF70182917F01803209F46BCF76
:10024000BE0188E00E946100BE0180E20E94610060
:10025000BE0188E00E94610087018EE6E81682E018
:10026000F80609F038F757CFE0917602F09177025F
:10027000CF010196909377028093760280818A3035
:1002800041F4109277021092760203C08EEF01C003
:100290008FEFDF91CF911F910F91FF90EF90089515
:1002A000EF92FF920F931F93CF93DF938C017B010B
:1002B000FC0180819181009759F0FC01C281D381BA
:1002C000209721F00E942607CE01F7CF0E94260733
:1002D00084E090E00E949106EC0181E090E0998337
:1002E00088831B821A82F801D183C08302E010E068
:1002F000E016F1068CF084E090E00E9491069B836A
:100300008A83FC0111830083138212820A80DB81BD
:10031000C02D0F5F1F4FECCFDF91CF911F910F9139
:10032000FF90EF900895DC01ED91FC91A0E0B0E02A
:100330003097C1F0E617F70781F4FB012281338182
:10034000109721F4DC012D933C9304C013963C9349
:100350002E931297CB010C942607DF010280F381C4
:10036000E02DE6CF08950F931F93CF93DF93EC0119
:1003700088819981009761F0FC0102811381011548
:10038000110521F00E942607C801F6CF0E9426071A
:1003900019821882DF91CF911F910F9108950F93C9
:1003A0001F93CF93DF936115710509F5EA018C0165
:1003B00084E090E00E949106DC011196DC93CE93DC
:1003C00013961C921E921297E801E881F9813097EA
:1003D00019F49983888308C082819381009711F072
:1003E000FC01FACFB383A28382E090E009C081E0F0
:1003F00090E0FB01208131812417350709F080E06E
:10040000DF91CF911F910F91089580917D0290917E
:100410007E0208950F931F93A0917D02B0917E02FA
:10042000E6B540918102509182022AEF30E00E94AD
:10043000D804DC01CB018E0F911DA11DB11D8C01D3
:100440009D0182E0000F111F221F331F8A95D1F7F3
:10045000CA01550FAA0BBB0BBC01CD01600F711F68
:10046000821F931F1F910F91089520917D0230915B
:100470007E0220917D0230917E02A901481B590B1A
:10048000CA0108951F920F920FB60F9211242F9355
:100490008F939F9380917D0290917E02019690931D
:1004A0007E0280937D028091810290918202489623
:1004B00090938202809381028091810290918202C6
:1004C000883E93409CF08091810290918202885EE8
:1004D0009340909382028093810280917D0290915B
:1004E0007E02019690937E0280937D029F918F9170
:1004F0002F910F900FBE0F901F901895CF93DF9301
:10050000EB0121E020936D0220917D0230917E026B
:1005100030937C0220937B0220917D0230917E02F9
:1005200030938B0220938A02BC01990F880B990BA0
:100530000E9498059B01AC0160E070E080E89FE3B9
:100540000E94EE0420E030E04AE754E40E942406D2
:100550000E9460057093840260938302D0938F029F
:10056000C0938E02DF91CF9108951F920F920FB624
:100570000F9211242F933F934F935F936F937F9329
:100580008F939F93AF93BF93EF93FF9380917802E4
:10059000909179020E9435028D3291409CF081E069
:1005A0008093870210927A0260E971E081E290E024
:1005B0000E947E0280917D0290917E02909379024A
:1005C00080937802FF91EF91BF91AF919F918F91AE
:1005D0007F916F915F914F913F912F910F900FBE3F
:1005E0000F901F9018951F920F920FB60F92112423
:1005F0002F933F934F935F936F937F938F939F932B
:10060000AF93BF93EF93FF9380918C0290918D02F3
:100610000E9435028D3291409CF081E080938702E8
:1006200080937A0260E971E08AEE9AE00E947E028D
:1006300080917D0290917E0290938D0280938C0236
:10064000FF91EF91BF91AF919F918F917F916F91AA
:100650005F914F913F912F910F900FBE0F901F9080
:1006600018958AB1837F8AB98BB18C608BB983E08E
:100670008DBB8FE080936900089581E080936E00C8
:1006800016BC83E085BD0895CF93DF93CDB7DEB769
:100690002E970FB6F894DEBF0FBECDBFF8948091B1
:1006A000C10088618093C1008091C2008660809300
:1006B000C2001092C50087E68093C400FE01319607
:1006C0008EE0DF011D928A95E9F783E08C8381E655
:1006D00090E09A8789878BE790E09C878B87F093DF
:1006E0009502E0939402F0939702E09396028FEFC5
:1006F00084B915B80E9431030E943D03789413E039
:1007000002E081E5E82E82E0F82E94EEC92E91E019
:10071000D92E24E0322E35EDA32E31E0B32E4FE753
:10072000842E42E0942E55EC652E51E0752E222445
:10073000239480916D02813041F580917B029091EC
:100740007C020E9435022091830230918402281796
:1007500039075CF480917D0290917E0290937C0237
:1007600080937B0285B1809585B980918A029091B2
:100770008B020E94350220918E0230918F02281741
:1007800039071CF415B810926D02E0916C02F0E08C
:10079000E830F10570F6EC5CFF4F0C94D20480E178
:1007A00091E00E94FE0781E391E00E94FE0780E550
:1007B00091E00E94FE0780E791E00E94FE072092F0
:1007C0006C02B7CF9F928F927F926F920E942E08F9
:1007D0002C010F900F900F900F900197A9F460914A
:1007E0007F0270918002CB010297089768F48AE635
:1007F00092E00E94500186E692E00E94B30150927E
:10080000860240928502C4C088EC91E00E94FE07F7
:1008100090CF809186028F93809185028F93BF92B3
:10082000AF920E94E807809185029091860201961E
:10083000909386028093850280916A0290916B0268
:10084000909369028093680210936C0294C0809127
:100850006602909167029093650280936402809192
:100860007D0290917E029093890280938802E091AC
:100870006802F091690281818F9380818F93DF926A
:10088000CF920E94E80730926C0275C08091880276
:10089000909189020E9435028938934144F082EF99
:1008A00091E00E94FE07F6E0F0936C0242CF809147
:1008B0008702882309F43DCF1092870240917A0283
:1008C00050E0609164027091650286E692E00E94B9
:1008D000CF018130910549F08230910589F0892B53
:1008E00091F425E020936C020EC0E0916402F09137
:1008F000650282819381909365028093640203C0B4
:1009000087E080936C0280917D0290917E029093AB
:100910008902809388020DCF80E292E00E94FE0758
:100920006091680270916902DB0112968D919C9131
:100930001397009719F400936C0206C09093690214
:100940008093680210936C028AE692E00E94930101
:10095000E0916A02F0916B0282819381892B09F008
:10096000E8CE81818F9380818F93FF92EF920E94D6
:10097000E80710926C020F900F900F900F90D9CE55
:10098000E0916802F091690282819381009719F4E5
:1009900000936C02CECE909369028093680210930C
:1009A0006C02C7CEEE0FFF1F0590F491E02D099465
:1009B0000E94DF04B7FF0895821B930B0895A29F46
:1009C000B001B39FC001A39F700D811D1124911D23
:1009D000B29F700D811D1124911D08950E94020582
:1009E0000C94EA050E94E30558F00E94DC0540F0F3
:1009F00029F45F3F29F00C94D30551110C941E0685
:100A00000C94D9050E94FB0568F39923B1F3552393
:100A100091F3951B550BBB27AA2762177307840711
:100A200038F09F5F5F4F220F331F441FAA1FA9F3A7
:100A300035D00E2E3AF0E0E832D091505040E69595
:100A4000001CCAF72BD0FE2F29D0660F771F881FF6
:100A5000BB1F261737074807AB07B0E809F0BB0BE9
:100A6000802DBF01FF2793585F4F3AF09E3F5105FD
:100A700078F00C94D3050C941E065F3FE4F3983E87
:100A8000D4F3869577956795B795F7959F5FC9F7E6
:100A9000880F911D9695879597F90895E1E0660F67
:100AA000771F881FBB1F621773078407BA0720F0E0
:100AB000621B730B840BBA0BEE1F88F7E095089549
:100AC0000E9467056894B1110C941E0608950E9457
:100AD000030688F09F5798F0B92F9927B751B0F0C7
:100AE000E1F0660F771F881F991F1AF0BA95C9F7B2
:100AF00014C0B13091F00E941D06B1E008950C942D
:100B00001D06672F782F8827B85F39F0B93FCCF3DF
:100B1000869577956795B395D9F73EF4909580952E
:100B2000709561957F4F8F4F9F4F0895E89409C04E
:100B300097FB3EF490958095709561957F4F8F4F10
:100B40009F4F9923A9F0F92F96E9BB279395F69526
:100B5000879577956795B795F111F8CFFAF4BB0FA4
:100B600011F460FF1BC06F5F7F4F8F4F9F4F16C008
:100B7000882311F096E911C0772321F09EE8872F92
:100B8000762F05C0662371F096E8862F70E060E04E
:100B90002AF09A95660F771F881FDAF7880F9695C7
:100BA000879597F9089597F99F6780E870E060E06E
:100BB00008959FEF80EC089500240A9416161706F6
:100BC00018060906089500240A941216130614063E
:100BD00005060895092E0394000C11F4882352F0A1
:100BE000BB0F40F4BF2B11F460FF04C06F5F7F4F59
:100BF0008F4F9F4F089557FD9058440F551F59F040
:100C00005F3F71F04795880F97FB991F61F09F3FF9
:100C100079F087950895121613061406551FF2CF22
:100C20004695F1DF08C0161617061806991FF1CF72
:100C300086957105610508940895E894BB27662799
:100C40007727CB0197F908950E9437060C94EA059F
:100C50000E94DC0538F00E94E30520F0952311F096
:100C60000C94D3050C94D90511240C941E060E94F3
:100C7000FB0570F3959FC1F3950F50E0551F629FE0
:100C8000F001729FBB27F00DB11D639FAA27F00DE5
:100C9000B11DAA1F649F6627B00DA11D661F829F0C
:100CA0002227B00DA11D621F739FB00DA11D621FF1
:100CB000839FA00D611D221F749F3327A00D611D0E
:100CC000231F849F600D211D822F762F6A2F1124F0
:100CD0009F5750409AF0F1F088234AF0EE0FFF1F23
:100CE000BB1F661F771F881F91505040A9F79E3F7A
:100CF000510580F00C94D3050C941E065F3FE4F37D
:100D0000983ED4F3869577956795B795F795E795CF
:100D10009F5FC1F7FE2B880F911D9695879597F9D8
:100D20000895CF93DF938230910510F482E090E034
:100D3000E0919202F091930220E030E0C0E0D0E038
:100D4000309711F14081518148175907C0F0481779
:100D5000590761F482819381209719F09B838A83DC
:100D60002BC0909393028093920226C021153105E7
:100D700019F04217530718F49A01BE01DF01EF0181
:100D80000280F381E02DDCCF2115310509F1281B0C
:100D9000390B2430310590F412968D919C91139764
:100DA0006115710521F0FB019383828304C0909348
:100DB000930280939202FD01329644C0FD01E20F3E
:100DC000F31F81939193225031092D933C933AC0A4
:100DD0002091900230919102232B41F42091020145
:100DE00030910301309391022093900220910001F1
:100DF000309101012115310541F42DB73EB74091E5
:100E0000040150910501241B350BE0919002F091F3
:100E10009102E217F307A0F42E1B3F0B28173907A6
:100E200078F0AC014E5F5F4F2417350748F04E0F46
:100E30005F1F50939102409390028193919302C05F
:100E4000E0E0F0E0CF01DF91CF9108950F931F9381
:100E5000CF93DF93009709F48CC0FC013297138283
:100E6000128200919202109193020115110581F4F2
:100E700020813181820F931F209190023091910245
:100E80002817390779F5F0939102E093900271C029
:100E9000D80140E050E0AE17BF0750F412962D91F4
:100EA0003C911397AD012115310509F1D901F3CF1B
:100EB0009D01DA013383228360817181860F971F40
:100EC0008217930769F4EC0128813981260F371FB7
:100ED0002E5F3F4F318320838A819B81938382835E
:100EE000452B29F4F0939302E093920242C01396AB
:100EF000FC93EE931297ED01499159919E01240FB5
:100F0000351FE217F30771F480819181840F951FDB
:100F1000029611969C938E938281938113969C9353
:100F20008E931297E0E0F0E0D80112968D919C919B
:100F30001397009719F0F8018C01F6CF8D919C91D1
:100F400098012E5F3F4F820F931F209190023091A6
:100F500091022817390769F4309729F41092930207
:100F60001092920202C01382128210939102009397
:100F70009002DF91CF911F910F910895EF92FF9210
:100F80000F931F93CF93DF93DB0113962C9121FFD7
:100F900018C08B017C01D0E0C0E0F70181917F0196
:100FA000882361F0D8011896ED91FC911997B8014A
:100FB0000995892B91F3DFEFCFEFEFCF8D2F9C2F8A
:100FC00002C08FEF9FEFCDB7DEB7E6E00C94060EC0
:100FD000A0E0B0E0EEEEF7E00C94EE0DAE014B5F5A
:100FE0005F4FFA0161917191AF01809196029091EA
:100FF00097020E944408E2E00C940A0E0F931F939C
:10100000CF93DF93E0919602F0919702238121FF25
:101010001BC08C01D0E0C0E0F80181918F0160918C
:10102000960270919702DB011896ED91FC91199749
:10103000882331F00995892B79F3DFEFCFEFECCFDF
:101040008AE00995892B19F08FEF9FEF02C08D2F51
:101050009C2FDF91CF911F910F910895A0E0B0E0F8
:10106000E4E3F8E00C94EE0DAE014B5F5F4FFA0144
:1010700061917191AF0180919402909195020E94CB
:10108000960BE2E00C940A0EACE0B0E0EAE4F8E083
:101090000C94DE0D7C016B018A01FC011782168223
:1010A000838181FFBDC1CE0101964C01F70193817F
:1010B000F60193FD859193FF81916F01882309F4D7
:1010C000ABC1853239F493FD859193FF81916F0116
:1010D000853229F4B70190E00E942C0DE7CF512C06
:1010E000312C20E02032A0F48B3269F030F48032D1
:1010F00059F0833269F420612CC08D3239F080338D
:1011000039F4216026C02260246023C0286021C0F9
:1011100027FD27C030ED380F3A3078F426FF06C09F
:10112000FAE05F9E300D1124532E13C08AE0389EE2
:10113000300D1124332E20620CC08E3221F426FD96
:101140006BC1206406C08C3611F4206802C088365A
:1011500041F4F60193FD859193FF81916F01811117
:10116000C1CF982F9F7D9554933028F40C5F1F4F6B
:10117000FFE3F9830DC0833631F0833771F0833597
:1011800009F05BC022C0F801808189830E5F1F4F88
:1011900044244394512C540115C03801F2E06F0EE1
:1011A000711CF801A080B18026FF03C0652D70E09E
:1011B00002C06FEF7FEFC5012C870E94E30C2C016A
:1011C00083012C852F77222E17C03801F2E06F0E95
:1011D000711CF801A080B18026FF03C0652D70E06E
:1011E00002C06FEF7FEFC5012C870E94D80C2C0145
:1011F0002C852068222E830123FC1BC0832D90E0C8
:1012000048165906B0F4B70180E290E00E942C0D18
:101210003A94F4CFF50127FC859127FE81915F0177
:10122000B70190E00E942C0D31103A94F1E04F1A72
:1012300051084114510471F7E5C0843611F0893624
:1012400039F5F80127FF07C06081718182819381A0
:101250000C5F1F4F08C060817181072E000C880B46
:10126000990B0E5F1F4F2F76722E97FF09C0909536
:101270008095709561957F4F8F4F9F4F2068722E9C
:101280002AE030E0A4010E947D0DA82EA81844C0D9
:10129000853729F42F7EB22E2AE030E025C0F22FC8
:1012A000F97FBF2E8F36C1F018F4883579F0B4C0BD
:1012B000803719F0883721F0AFC02F2F2061B22E70
:1012C000B4FE0DC08B2D8460B82E09C024FF0AC067
:1012D0009F2F9660B92E06C028E030E005C020E1BF
:1012E00030E002C020E132E0F801B7FE07C06081C3
:1012F0007181828193810C5F1F4F06C06081718173
:1013000080E090E00E5F1F4FA4010E947D0DA82E8B
:10131000A818FB2DFF777F2E76FE0BC0372D3E7F62
:10132000A51450F474FE0AC072FC08C0372D3E7E2E
:1013300005C0BA2C372D03C0BA2C01C0B52C34FF20
:101340000DC0FE01EA0DF11D8081803311F4397E5C
:1013500009C032FF06C0B394B39404C0832F8678CB
:1013600009F0B39433FD13C030FF06C05A2CB314F8
:1013700018F4530C5B18B32CB31468F4B70180E273
:1013800090E03C870E942C0DB3943C85F5CFB314BC
:1013900010F43B1801C0312C34FF12C0B70180E3B8
:1013A00090E03C870E942C0D3C8532FF17C031FD38
:1013B00003C088E790E002C088E590E0B7010CC068
:1013C000832F867859F031FF02C08BE201C080E2A2
:1013D00037FD8DE2B70190E00E942C0DA51438F482
:1013E000B70180E390E00E942C0D5A94F7CFAA94A5
:1013F000F401EA0DF11D8081B70190E00E942C0DEF
:10140000A110F5CF332009F451CEB70180E290E06E
:101410000E942C0D3A94F6CFF7018681978102C085
:101420008FEF9FEF2C96E2E10C94FA0D20FD09C09E
:10143000FC0123FD05C022FF02C073836283518338
:101440004083089544FD10C046FD10C0DB01FC013F
:10145000AA0FBB1FEE1FFF1F1094D1F76A0F7B1F4F
:101460008E1F9F1F31E003C033E001C034E0660FE0
:10147000771F881F991F3150D1F7620F711D811D91
:10148000911D08950F931F93CF93DF938C01C80193
:101490000E94EE0CEC0197FD08C00E94C40C892B41
:1014A000B1F7B801CE010E94640DCE01DF91CF915A
:1014B0001F910F910895A1E0B0E0E1E6FAE00C94ED
:1014C000E40D8C01C62E7A0129830E94EE0CAC013A
:1014D000552729814B32510521F04D32510569F4D0
:1014E0002068CA94C11002C080E076C0C801298378
:1014F0000E94EE0C298197FDF7CF322F3D7FD32E2E
:10150000322F307349F5803339F5BB24BA94BC0CC3
:1015100009F44EC0C80129830E94EE0C298197FD71
:1015200047C0382F3F7D383569F48D2D8264D82E21
:10153000CA94CA94CC20E1F1C8010E94EE0C97FF36
:101540000BC036C026FF04C02D2D2260D22E03C052
:101550003D2D3261D32ECB2C812C912C540120EDCA
:10156000280F283080F0D4FE04C0B8010E94640D1A
:101570001CC02A3040F0D6FEF8CF2F7D3FEE320F50
:10158000363098F727504D2DC501B4010E94220A2C
:101590004B015C018D2D8260D82ECA94CC2059F06D
:1015A000C8010E94EE0C97FFDACFD1FC04C09CCF9B
:1015B000812C912C5401D7FE08C0B094A094909433
:1015C0008094811C911CA11CB11C2D2DB501A4017E
:1015D000C7010E94160A81E02196ECE00C94000EEF
:1015E000A1E2B0E0E6EFFAE00C94E20D5C017A01D2
:1015F000CE0101966C0180E2F60111928A95E9F71D
:10160000F501838040E050E0912C712C70E0A1E066
:10161000B0E0F90183FC859183FE81918F01982FC1
:101620009F01811103C080E090E07CC08E3519F4E9
:101630004115510549F1E72FF0E0E417F5073CF4B7
:101640008D3559F18D3219F4772001F103C07110F5
:1016500001C0982E892F8695869586958601080F5C
:10166000111D892F87703D0101C0660C8A95EAF72C
:10167000F801808186298083991559F0991510F415
:101680009F5FE8CF9150E6CF71E004C07724739458
:1016900001C0712C4F5F5F4FBCCF772019F08E8156
:1016A00080628E83711103C09924939416C0F60151
:1016B0009E012F5D3F4F808180958193E217F30754
:1016C000D1F7F2CFE114F10429F0F7018083C701CB
:1016D00001967C016150912CF9F0C50169A30E942B
:1016E000EE0C69A197FD16C0282F26952695269504
:1016F000F601E20FF11D208130E0AC014770552763
:1017000002C0359527954A95E2F720FDDBCFB5015C
:101710000E94640D911087CFE114F10411F0F701DC
:101720001082C801A196EEE00C94FE0D4F925F92DC
:101730007F928F929F92AF92BF92CF92DF92EF9261
:10174000FF920F931F93CF93DF931F92CDB7DEB716
:101750006C012B015A01FC0117821682712CF601D3
:10176000F380F201F3FC8591F3FE8191382F2F0174
:10177000882309F4F3C090E039830E94C40C3981B6
:10178000892B21F0C6010E94420AE9CF353241F48B
:10179000F201F3FC3591F3FE31912F01353269F4FA
:1017A000C60139830E94EE0C398197FDD5C03817E8
:1017B000B1F2B6010E94640DD1C03A3239F4F3FCA3
:1017C0003591F3FE31912F0151E001C050E042010B
:1017D00010E020ED230F2A3090F45260612F70E06A
:1017E00080E090E040E259830E94220A162FF40123
:1017F000F3FC3591F3FE31914F015981EACF052F6A
:10180000232F240151FF03C0111102C0A7C01FEFF5
:10181000383619F03C3659F011C0F401F3FC25912B
:10182000F3FE21912F01283649F4052F086004604A
:10183000F201F3FC2591F3FE21912F01222309F4FB
:101840008DC0622F70E088E790E029830E94CD0C64
:101850002981892B09F482C000FD07C0F501E080D1
:10186000F180C50102965C0102C0E12CF12C2E36FC
:1018700051F4F6014681578160E070E0202FC701E6
:101880000E94160A6CCF233691F401FF11E0C601C5
:101890000E94EE0C97FD60C0E114F10429F0F701FD
:1018A0008083C70101967C01115089F751C02B3507
:1018B00059F49201A701612FC6010E94F00A2C0180
:1018C000892B09F045C03FC0C60129830E94420A06
:1018D000298197FD41C02F3659F128F4243631F182
:1018E000293649F127C0233769F02537F9F022C09E
:1018F000E114F10429F0F7018082C70101967C010F
:10190000115071F0C6010E94EE0C4C0197FD08C009
:101910000E94C40C892B61F3B601C4010E94640DBE
:10192000E114F104A9F0F701108212C0006203C0B3
:10193000006101C00064202FA701612FC6010E9431
:101940005B0A811105C0F6018381807329F406C00A
:1019500000FD05CF739403CF772019F0872D90E019
:1019600002C08FEF9FEF0F90DF91CF911F910F91EA
:10197000FF90EF90DF90CF90BF90AF909F908F90AF
:101980007F905F904F90089591110C94DB0D803201
:1019900019F089508550C8F70895FC010590061686
:1019A00021F00020D9F7C00108953197CF010895A3
:1019B000FC010590615070400110D8F7809590951A
:1019C0008E0F9F1F0895FC0161507040019001101F
:1019D000D8F7809590958E0F9F1F0895CF93DF9332
:1019E000EC012B8120FF33C026FF0AC02F7B2B8305
:1019F0008E819F8101969F838E838A8190E029C08A
:101A000022FF0FC0E881F9818081082E000C990B1C
:101A1000009719F420622B831AC03196F983E8836A
:101A20000EC0EA85FB85099597FF09C02B810196B9
:101A300011F080E201C080E1822B8B8308C02E81EF
:101A40003F812F5F3F4F3F832E83992702C08FEF47
:101A50009FEFDF91CF9108950F931F93CF93DF9363
:101A6000FB01238121FD03C08FEF9FEF28C022FFE0
:101A700016C046815781248135814217530744F4AB
:101A8000A081B1819D012F5F3F4F318320838C93D3
:101A9000268137812F5F3F4F3783268310C0EB01AC
:101AA000092F182F0084F185E02D0995892BE1F687
:101AB0008E819F8101969F838E83812F902FDF914E
:101AC000CF911F910F910895FB01238120FF12C038
:101AD00026FD10C08F3F3FEF930761F082832F7D7B
:101AE000206423832681378121503109378326835F
:101AF000992708958FEF9FEF0895FA01AA272830BC
:101B000051F1203181F1E8946F936E7F6E5F7F4FCA
:101B10008F4F9F4FAF4FB1E03ED0B4E03CD0670F46
:101B2000781F891F9A1FA11D680F791F8A1F911D99
:101B3000A11D6A0F711D811D911DA11D20D009F4E9
:101B400068943F912AE0269F11243019305D31932B
:101B5000DEF6CF010895462F4770405D4193B3E014
:101B60000FD0C9F7F6CF462F4F70405D4A3318F0BB
:101B7000495D31FD4052419302D0A9F7EACFB4E06C
:101B8000A6959795879577956795BA95C9F7009724
:101B90006105710508959B01AC010A2E06945795C5
:101BA000479537952795BA95C9F7620F731F841F1C
:101BB000951FA01D08959927882708952F923F9279
:101BC0004F925F926F927F928F929F92AF92BF924D
:101BD000CF92DF92EF92FF920F931F93CF93DF93F9
:101BE000CDB7DEB7CA1BDB0B0FB6F894DEBF0FBE56
:101BF000CDBF09942A88398848885F846E847D84A3
:101C00008C849B84AA84B984C884DF80EE80FD80A4
:101C10000C811B81AA81B981CE0FD11D0FB6F8941A
:0E1C2000DEBF0FBECDBFED010895F894FFCFDB
:101C2E0000009A02800000042A72696E672A0A0078
:101C3E000A0A2A2A2A2A2A2A2A2A2A2A2A2A2A2A36
:101C4E002A2A2A2A2A2A2A2A2A2A2A2A2A2A2A2AE6
:101C5E00002A2A2A20466F6C6C6F772074686520E4
:101C6E006C65616465722067616D65202A2A2A00A1
:101C7E002A2A2A2A2A2A2A2A2A2A2A2A2A2A2A2AB6
:101C8E002A2A2A2A2A2A2A2A2A2A2A2A2A2A0A00F0
:101C9E002D3E2057656C636F6D6520746F207468E0
:101CAE006520666F6C6C6F7720746865206C65615B
:101CBE006465722067616D652120506C6561736586
:101CCE0020656E74657220746865206E756D626530
:101CDE0072206F6620706C61796572733A205B3288
:101CEE002D395D200025640057726F6E6720696E76
:101CFE007075742E000A0A2D3E20524F554E442008
:101D0E0025640A002D3E20506C6179657220256491
:101D1E000A000A0A2D3E2054696D652065787069A7
:101D2E007265642E20596F75206861766520626534
:101D3E00656E20656C696D696E6174656421200045
:101D4E002D3E20496E636F727265637420736571E8
:101D5E0075656E63652120596F7520686176652003
:101D6E006265656E20656C696D696E617465642E61
:101D7E00002D3E20506C6179657220256420776FAE
:041D8E006E210A00B8
:00000001FF
